:020000020000FC
:040000000C94340028
:1000680008E00EBF0FEF0DBF0FEF04B90EEF0AB98E
:1000780000E00093C50007E60093C40008E1009380
:10008800C10006E00093C2007894F0E0E2ED14E4C9
:1000980005912091C00025FFFCCF0093C6001A955A
:1000A800B9F711272091C00027FFFCCF0091C600A7
:1000B8000F700130B8F30530A8F702FD000F0330C8
:1000C80009F40395102715B9EDCF2A2A2A20486F7D
:1000D8006C61204C61626F206465204D6963726FAA
:1000E800202A2A2A0A4573637269626120312C32F8
:1000F8002C33206F2034207061726120636F6E741E
:0E010800726F6C6172206C6F73204C454473F3
:00000001FF
